101 021000021123456789012512281530A094101DEST BANK NAME        ORIG BANK NAME         REF     
5200MULTI PAYMENT    DISCRETIONARY   1234567890PPDPAYROLL   251228251228   1021000020000001   
622021000021123456789012345670000002500ID00000000001  EMPLOYEE ONE            0021000020000001
622021000021234567890123456780000003500ID00000000002  EMPLOYEE TWO            0021000020000002
622021000021345678901234567890000001500ID00000000003  EMPLOYEE THREE          0021000020000003
820000000300630000630000000750001234567890                         021000020000001            
9000001000001000000030006300006300000075000                                                   