101 021000089 1234567892601061530A094101CITIBANK NA            RETURNED ITEMS         RETURN-E2E
5200TECHGLOBAL IN   RETURN BATCH        1234567890CCDRETURN    260106260106   1021000890000001
6210210000217890123456789012 0015000000VEND001234     GLOBAL SUPPLY CHAIN LLC 1021000890000001
798R01INSUF FUNDS   260106021000089987654321012345678VEND001234                  0000001
6260210000218901234567890123 0012500000VEND002345     PREMIUM MFG CORP        1021000890000002
798R03NO ACCOUNT    260106021000089876543210123456789VEND002345                  0000002
821000000200042000021000000275000000000000001234567890                         021000890000001
9000001000001000000020004200002100000002750000000000000
