101 021000089 1234567892601061530A094101CITIBANK NA            UTILITY COLLECTIONS    PPD-DR-E2E
5225UTILITY CO      MONTHLY BILLING     1234567890PPDUTILBILL  260106260106   1021000890000001
6270210000211234567890123456 0000125000CUST001234     JOHN A SMITH            1021000890000001
6270210000212345678901234567 0000089500CUST002345     SARAH M JOHNSON         1021000890000002
6270210000213456789012345678 0000156000CUST003456     MICHAEL B WILLIAMS      1021000890000003
705AUTHORIZED MONTHLY UTILITY DEBIT FOR ACCOUNT 12345                         0000001
825000000300063000031500000000370500000000000001234567890                         021000890000001
9000001000001000000030006300003150000000037050000000000
